S01700004763634170706C69636174696F6E312E737265635B
S113000012C021C020C084C01EC01DC01CC01BC0A3
S11300101AC019C018C017C016C015C014C013C028
S113002012C011C010C011241FBECFE5D4E0DEBF42
S1130030CDBF20E0A0E6B0E001C01D92AA3CB2070B
S1130040E1F702D075C1DCCF18D069D19BE088E11B
S11300500FB6F894A89581BD0FBE91BD84E390E0DE
S11300602FD0A8952FD1FDCF6AE070E084E390E013
S1130070B5D085E088BB0895089580E090E02CE336
S113008030E0FC01EE0FFF1FE056FF4F3183208369
S1130090019685319105A9F780E090E02CE330E0EA
S11300A0FC01EE0FFF1FEE0FFF1FE05AFF4F3183DD
S11300B020831382128201968031910589F7089575
S11300C00FB607FE0CC0F894A1E00AC02F5F3F4FA3
S11300D02531310539F4AA23D1F078940895A0E0AC
S11300E020E030E0B901F901EE0FFF1FE056FF4FA9
S11300F0408151814C53504049F7660F771FFB01F3
S1130100E056FF4F91838083AA2309F078940895E1
S11301101F920F920FB60F921124EF92FF920F933A
S11301201F932F933F934F935F936F937F938F937B
S11301309F93AF93BF93CF93DF93EF93FF93E12C00
S1130140F12C0CE310E0F701D701AA0FBB1FAA0F93
S1130150BB1FA05ABF4F8D919C918C53904001F1CD
S1130160D701AA0FBB1FAA0FBB1FA05ABF4F1296DD
S11301708D919C911397019739F0FD0182819381B0
S11301800197938382830CC0EE0FFF1FEE0FFF1FB6
S1130190EF01C05ADF4F8881998192DF1983088368
S11301A08FEFE81AF80A20E1E216F10461F6FF91F4
S11301B0EF91DF91CF91BF91AF919F918F917F91FB
S11301C06F915F914F913F912F911F910F91FF90EC
S11301D0EF900F900FBE0F901F9018950FB607FE6B
S11301E066C0F894209160003091610028173907A7
S11301F009F453C041E050E01BC0F901EE0FFF1FAA
S1130200EE0FFF1FE05AFF4F0190F081E02DE81739
S1130210F90781F4220F331F220F331FF901E05A2B
S1130220FF4F73836283452B09F44BC07894089580
S113023020E030E02F5F3F4F20313105F1F620916F
S11302406000309161002C53304081F021E030E0B7
S1130250F901EE0FFF1FEE0FFF1FE05AFF4F019051
S1130260F081E02DEC53F04091F402C020E030E046
S1130270220F331F220F331FF901E05AFF4F9183DE
S1130280808373836283452BE1F0789408952F5F14
S11302903F4F20313105E1F6089570936300609378
S11302A06200C4CF7093630060936200089520914C
S11302B060003091610028173907A1F340E050E055
S11302C0B7CF0895CF93DF93F894E091A000F09115
S11302D0A10080E0EC33F80711F478941DC080E0AD
S11302E090E0DC010196EC01CC0FDD1FC056DF4F1E
S11302F028813981AA0FBB1FA056BF4F11963C938A
S11303002E938431910569F78CE390E09093C900B2
S11303108093C80078940995DF91CF9108958CE07B
S113032085BD14BC8CEA83BD80E889BF78940895A8
S1070330F894FFCF6B
S9030000FC
