:1000000012C021C020C009C11EC01DC01CC01BC021
:100010001AC019C018C033C077C015C014C013C0AF
:1000200012C011C010C011241FBECFE5D4E0DEBF46
:10003000CDBF21E0A0E6B0E001C01D92A135B2071E
:10004000E1F706D0FAC1DCCF85E090E082D00895D8
:1000500099D0EAD1F9DF9BE088E10FB6F894A89532
:1000600081BD0FBE91BD89E390E0AFD0A895AFD11F
:10007000FDCF6AE070E089E390E035D108951F92EA
:100080000F920FB60F9211242F933F934F935F93CC
:100090006F937F938F939F93AF93BF93EF93FF9350
:1000A0009BB18CB1E0916200EF5FEF732091610032
:1000B000E21741F09871E0936200F0E0EB59FF4FD6
:1000C000808301C092E020916000922B90936000A9
:1000D0002091E5003091E600232B29F0E091E50026
:1000E000F091E6000995FF91EF91BF91AF919F913B
:1000F0008F917F916F915F914F913F912F910F90D1
:100100000FBE0F901F9018951F920F920FB60F926F
:1001100011248F939F93EF93FF93909164008091AC
:100120006300981761F0E0916300EF5FEF73E09375
:100130006300F0E0EB55FF4F80818CB901C055980A
:10014000FF91EF919F918F910F900FBE0F901F9095
:100150001895109264001092630010926200109241
:1001600061001092E6001092E50099231CF422E051
:100170002BB99F7790BD89B988E98AB986E880BD97
:100180000895089580E090E021EC30E0FC01EE0F4E
:10019000FF1FE95DFE4F3183208301968531910574
:1001A000A9F780E090E021EC30E0FC01EE0FFF1FAA
:1001B000EE0FFF1FE951FF4F31832083138212821C
:1001C00001968031910589F708950FB607FE0CC09E
:1001D000F894A1E00AC02F5F3F4F2531310539F473
:1001E000AA23D1F078940895A0E020E030E0B9018E
:1001F000F901EE0FFF1FE95DFE4F40815181415C27
:10020000504049F7660F771FFB01E95DFE4F918370
:100210008083AA2309F0789408951F920F920FB655
:100220000F921124EF92FF920F931F932F933F93FE
:100230004F935F936F937F938F939F93AF93BF93EE
:10024000CF93DF93EF93FF93E12CF12C01EC10E0BF
:10025000F701D701AA0FBB1FAA0FBB1FA951BF4FA0
:100260008D919C91815C904001F1D701AA0FBB1F39
:10027000AA0FBB1FA951BF4F12968D919C91139746
:10028000019739F0FD0182819381019793838283E5
:100290000CC0EE0FFF1FEE0FFF1FEF01C951DF4F24
:1002A0008881998192DF198308838FEFE81AF80A11
:1002B00020E1E216F10461F6FF91EF91DF91CF9119
:1002C000BF91AF919F918F917F916F915F914F916E
:1002D0003F912F911F910F91FF90EF900F900FBEC4
:1002E0000F901F9018950FB607FE66C0F8942091E6
:1002F000E7003091E8002817390709F453C041E0BE
:1003000050E01BC0F901EE0FFF1FEE0FFF1FE95178
:10031000FF4F0190F081E02DE817F90781F4220FDB
:10032000331F220F331FF901E951FF4F738362839B
:10033000452B09F44BC07894089520E030E02F5FFE
:100340003F4F20313105F1F62091E7003091E80070
:10035000215C304081F021E030E0F901EE0FFF1F19
:10036000EE0FFF1FE951FF4F0190F081E02DE15C9E
:10037000F04091F402C020E030E0220F331F220F42
:10038000331FF901E951FF4F9183808373836283A7
:10039000452BE1F0789408952F5F3F4F20313105D0
:1003A000E1F608957093EA006093E900C4CF70937A
:1003B000EA006093E90008952091E7003091E80099
:1003C00028173907A1F340E050E0B7CF0895CF9345
:1003D000DF93F894E0912701F091280180E0E13C5F
:1003E000F80711F478941DC080E090E0DC010196DC
:1003F000EC01CC0FDD1FC95DDE4F28813981AA0FCA
:10040000BB1FA95DBE4F11963C932E93843191057D
:1004100069F781EC90E09093500180934F017894BC
:100420000995DF91CF9108958CE085BD14BC8CEACD
:0E04300083BD80E889BF78940895F894FFCFCB
:00000001FF
